{
  "contractName": "Election",
  "abi": [
    {
      "inputs": [],
      "stateMutability": "nonpayable",
      "type": "constructor"
    },
    {
      "anonymous": false,
      "inputs": [
        {
          "indexed": false,
          "internalType": "uint256",
          "name": "candidateId",
          "type": "uint256"
        },
        {
          "indexed": false,
          "internalType": "string",
          "name": "name",
          "type": "string"
        },
        {
          "indexed": false,
          "internalType": "string",
          "name": "party",
          "type": "string"
        }
      ],
      "name": "CandidateAdded",
      "type": "event"
    },
    {
      "anonymous": false,
      "inputs": [
        {
          "indexed": false,
          "internalType": "address",
          "name": "voter",
          "type": "address"
        },
        {
          "indexed": false,
          "internalType": "uint256",
          "name": "candidateId",
          "type": "uint256"
        }
      ],
      "name": "VoteCast",
      "type": "event"
    },
    {
      "anonymous": false,
      "inputs": [
        {
          "indexed": false,
          "internalType": "address",
          "name": "voterAddress",
          "type": "address"
        }
      ],
      "name": "VoterRegistered",
      "type": "event"
    },
    {
      "inputs": [],
      "name": "admin",
      "outputs": [
        {
          "internalType": "address",
          "name": "",
          "type": "address"
        }
      ],
      "stateMutability": "view",
      "type": "function",
      "constant": true
    },
    {
      "inputs": [
        {
          "internalType": "uint256",
          "name": "",
          "type": "uint256"
        }
      ],
      "name": "candidates",
      "outputs": [
        {
          "internalType": "uint256",
          "name": "id",
          "type": "uint256"
        },
        {
          "internalType": "string",
          "name": "name",
          "type": "string"
        },
        {
          "internalType": "string",
          "name": "party",
          "type": "string"
        },
        {
          "internalType": "uint256",
          "name": "voteCount",
          "type": "uint256"
        }
      ],
      "stateMutability": "view",
      "type": "function",
      "constant": true
    },
    {
      "inputs": [],
      "name": "candidatesCount",
      "outputs": [
        {
          "internalType": "uint256",
          "name": "",
          "type": "uint256"
        }
      ],
      "stateMutability": "view",
      "type": "function",
      "constant": true
    },
    {
      "inputs": [
        {
          "internalType": "address",
          "name": "",
          "type": "address"
        }
      ],
      "name": "voters",
      "outputs": [
        {
          "internalType": "bool",
          "name": "isRegistered",
          "type": "bool"
        },
        {
          "internalType": "bool",
          "name": "hasVoted",
          "type": "bool"
        },
        {
          "internalType": "uint256",
          "name": "votedCandidateId",
          "type": "uint256"
        }
      ],
      "stateMutability": "view",
      "type": "function",
      "constant": true
    },
    {
      "inputs": [
        {
          "internalType": "address",
          "name": "_voterAddress",
          "type": "address"
        }
      ],
      "name": "registerVoter",
      "outputs": [],
      "stateMutability": "nonpayable",
      "type": "function"
    },
    {
      "inputs": [
        {
          "internalType": "string",
          "name": "_name",
          "type": "string"
        },
        {
          "internalType": "string",
          "name": "_party",
          "type": "string"
        }
      ],
      "name": "addCandidate",
      "outputs": [],
      "stateMutability": "nonpayable",
      "type": "function"
    },
    {
      "inputs": [
        {
          "internalType": "uint256",
          "name": "_candidateId",
          "type": "uint256"
        }
      ],
      "name": "vote",
      "outputs": [],
      "stateMutability": "nonpayable",
      "type": "function"
    }
  ],
  "bytecode": "0x608060405234801561001057600080fd5b5033600360006101000a81548173ffffffffffffffffffffffffffffffffffffffff021916908373ffffffffffffffffffffffffffffffffffffffff16021790555061109e806100616000396000f3fe608060405234801561001057600080fd5b506004361061007d5760003560e01c80633477ee2e1161005b5780633477ee2e146100d857806338db6dd31461010b578063a3ec138d14610127578063f851a440146101595761007d565b80630121b93f1461008257806326541b561461009e5780632d35a8a2146100ba575b600080fd5b61009c60048036038101906100979190610a57565b610177565b005b6100b860048036038101906100b391906109eb565b6103ed565b005b6100c2610560565b6040516100cf9190610d67565b60405180910390f35b6100f260048036038101906100ed9190610a57565b610566565b6040516101029493929190610dc7565b60405180910390f35b610125600480360381019061012091906109c2565b6106a6565b005b610141600480360381019061013c91906109c2565b610823565b60405161015093929190610c90565b60405180910390f35b610161610867565b60405161016e9190610c4c565b60405180910390f35b6000803373ffffffffffffffffffffffffffffffffffffffff1673ffffffffffffffffffffffffffffffffffffffff16815260200190815260200160002060000160009054906101000a900460ff16610205576040517f08c379a00000000000000000000000000000000000000000000000000000000081526004016101fc90610d47565b60405180910390fd5b6000803373ffffffffffffffffffffffffffffffffffffffff1673ffffffffffffffffffffffffffffffffffffffff16815260200190815260200160002060000160019054906101000a900460ff1615610294576040517f08c379a000000000000000000000000000000000000000000000000000000000815260040161028b90610d07565b60405180910390fd5b6000811180156102a657506002548111155b6102e5576040517f08c379a00000000000000000000000000000000000000000000000000000000081526004016102dc90610cc7565b60405180910390fd5b60016000803373ffffffffffffffffffffffffffffffffffffffff1673ffffffffffffffffffffffffffffffffffffffff16815260200190815260200160002060000160016101000a81548160ff021916908315150217905550806000803373ffffffffffffffffffffffffffffffffffffffff1673ffffffffffffffffffffffffffffffffffffffff168152602001908152602001600020600101819055506001600082815260200190815260200160002060030160008154809291906103ac90610f53565b91905055507fa36cc2bebb74db33e9f88110a07ef56e1b31b24b4c4f51b54b1664266e29f45b33826040516103e2929190610c67565b60405180910390a150565b600360009054906101000a900473ffffffffffffffffffffffffffffffffffffffff1673ffffffffffffffffffffffffffffffffffffffff163373ffffffffffffffffffffffffffffffffffffffff161461047d576040517f08c379a000000000000000000000000000000000000000000000000000000000815260040161047490610d27565b60405180910390fd5b6002600081548092919061049090610f53565b91905055506040518060800160405280600254815260200183815260200182815260200160008152506001600060025481526020019081526020016000206000820151816000015560208201518160010190805190602001906104f492919061088d565b50604082015181600201908051906020019061051192919061088d565b50606082015181600301559050507fe64f834082661dd9ed89427b87edb6270fd6dad17198b0938f0edd058914c87f600254838360405161055493929190610d82565b60405180910390a15050565b60025481565b600160205280600052604060002060009150905080600001549080600101805461058f90610f21565b80601f01602080910402602001604051908101604052809291908181526020018280546105bb90610f21565b80156106085780601f106105dd57610100808354040283529160200191610608565b820191906000526020600020905b8154815290600101906020018083116105eb57829003601f168201915b50505050509080600201805461061d90610f21565b80601f016020809104026020016040519081016040528092919081815260200182805461064990610f21565b80156106965780601f1061066b57610100808354040283529160200191610696565b820191906000526020600020905b81548152906001019060200180831161067957829003601f168201915b5050505050908060030154905084565b6000808273ffffffffffffffffffffffffffffffffffffffff1673ffffffffffffffffffffffffffffffffffffffff16815260200190815260200160002060000160009054906101000a900460ff1615610735576040517f08c379a000000000000000000000000000000000000000000000000000000000815260040161072c90610ce7565b60405180910390fd5b60016000808373ffffffffffffffffffffffffffffffffffffffff1673ffffffffffffffffffffffffffffffffffffffff16815260200190815260200160002060000160006101000a81548160ff02191690831515021790555060008060008373ffffffffffffffffffffffffffffffffffffffff1673ffffffffffffffffffffffffffffffffffffffff16815260200190815260200160002060000160016101000a81548160ff0219169083151502179055507fb6be2187d059cc2a55fe29e0e503b566e1e0f8c8780096e185429350acffd3dd816040516108189190610c4c565b60405180910390a150565b60006020528060005260406000206000915090508060000160009054906101000a900460ff16908060000160019054906101000a900460ff16908060010154905083565b600360009054906101000a900473ffffffffffffffffffffffffffffffffffffffff1681565b82805461089990610f21565b90600052602060002090601f0160209004810192826108bb5760008555610902565b82601f106108d457805160ff1916838001178555610902565b82800160010185558215610902579182015b828111156109015782518255916020019190600101906108e6565b5b50905061090f9190610913565b5090565b5b8082111561092c576000816000905550600101610914565b5090565b600061094361093e84610e4b565b610e1a565b90508281526020810184848401111561095b57600080fd5b610966848285610edf565b509392505050565b60008135905061097d8161103a565b92915050565b600082601f83011261099457600080fd5b81356109a4848260208601610930565b91505092915050565b6000813590506109bc81611051565b92915050565b6000602082840312156109d457600080fd5b60006109e28482850161096e565b91505092915050565b600080604083850312156109fe57600080fd5b600083013567ffffffffffffffff811115610a1857600080fd5b610a2485828601610983565b925050602083013567ffffffffffffffff811115610a4157600080fd5b610a4d85828601610983565b9150509250929050565b600060208284031215610a6957600080fd5b6000610a77848285016109ad565b91505092915050565b610a8981610e97565b82525050565b610a9881610ea9565b82525050565b6000610aa982610e7b565b610ab38185610e86565b9350610ac3818560208601610eee565b610acc81611029565b840191505092915050565b6000610ae4601183610e86565b91507f496e76616c69642063616e6469646174650000000000000000000000000000006000830152602082019050919050565b6000610b24601883610e86565b91507f566f74657220616c7265616479207265676973746572656400000000000000006000830152602082019050919050565b6000610b64601783610e86565b91507f566f7465722068617320616c726561647920766f7465640000000000000000006000830152602082019050919050565b6000610ba4602283610e86565b91507f4f6e6c792061646d696e2063616e20706572666f726d2074686973206163746960008301527f6f6e0000000000000000000000000000000000000000000000000000000000006020830152604082019050919050565b6000610c0a601783610e86565b91507f566f746572206973206e6f7420726567697374657265640000000000000000006000830152602082019050919050565b610c4681610ed5565b82525050565b6000602082019050610c616000830184610a80565b92915050565b6000604082019050610c7c6000830185610a80565b610c896020830184610c3d565b9392505050565b6000606082019050610ca56000830186610a8f565b610cb26020830185610a8f565b610cbf6040830184610c3d565b949350505050565b60006020820190508181036000830152610ce081610ad7565b9050919050565b60006020820190508181036000830152610d0081610b17565b9050919050565b60006020820190508181036000830152610d2081610b57565b9050919050565b60006020820190508181036000830152610d4081610b97565b9050919050565b60006020820190508181036000830152610d6081610bfd565b9050919050565b6000602082019050610d7c6000830184610c3d565b92915050565b6000606082019050610d976000830186610c3d565b8181036020830152610da98185610a9e565b90508181036040830152610dbd8184610a9e565b9050949350505050565b6000608082019050610ddc6000830187610c3d565b8181036020830152610dee8186610a9e565b90508181036040830152610e028185610a9e565b9050610e116060830184610c3d565b95945050505050565b6000604051905081810181811067ffffffffffffffff82111715610e4157610e40610ffa565b5b8060405250919050565b600067ffffffffffffffff821115610e6657610e65610ffa565b5b601f19601f8301169050602081019050919050565b600081519050919050565b600082825260208201905092915050565b6000610ea282610eb5565b9050919050565b60008115159050919050565b600073ffffffffffffffffffffffffffffffffffffffff82169050919050565b6000819050919050565b82818337600083830152505050565b60005b83811015610f0c578082015181840152602081019050610ef1565b83811115610f1b576000848401525b50505050565b60006002820490506001821680610f3957607f821691505b60208210811415610f4d57610f4c610fcb565b5b50919050565b6000610f5e82610ed5565b91507fffffffffffffffffffffffffffffffffffffffffffffffffffffffffffffffff821415610f9157610f90610f9c565b5b600182019050919050565b7f4e487b7100000000000000000000000000000000000000000000000000000000600052601160045260246000fd5b7f4e487b7100000000000000000000000000000000000000000000000000000000600052602260045260246000fd5b7f4e487b7100000000000000000000000000000000000000000000000000000000600052604160045260246000fd5b6000601f19601f8301169050919050565b61104381610e97565b811461104e57600080fd5b50565b61105a81610ed5565b811461106557600080fd5b5056fea26469706673582212200255fb6c0fb7da2b38bd35cf851079c9381be848fd8bbd56a631c71f1fa387a264736f6c63430008000033",
  "immutableReferences": {},
  "source": "// SPDX-License-Identifier: MIT\npragma solidity ^0.8.0;\n\ncontract Election {\n    // Model a Candidate\n    struct Candidate {\n        uint id;\n        string name;\n        string party;\n        uint voteCount;\n    }\n\n    // Model a Voter\n    struct Voter {\n        bool isRegistered;\n        bool hasVoted;\n        uint votedCandidateId;\n    }\n\n    // Store accounts that have voted\n    mapping(address => Voter) public voters;\n    \n    // Store Candidates\n    // Fetch Candidate\n    mapping(uint => Candidate) public candidates;\n    \n    // Store Candidates Count\n    uint public candidatesCount;\n\n    // Events\n    event VoterRegistered(address voterAddress);\n    event CandidateAdded(uint candidateId, string name, string party);\n    event VoteCast(address voter, uint candidateId);\n\n    // Store admin address\n    address public admin;\n    \n    constructor() {\n        admin = msg.sender;\n    }\n    \n    modifier onlyAdmin() {\n        require(msg.sender == admin, \"Only admin can perform this action\");\n        _;\n    }\n\n    // Register Voter\n    function registerVoter(address _voterAddress) public {\n        require(!voters[_voterAddress].isRegistered, \"Voter already registered\");\n        \n        voters[_voterAddress].isRegistered = true;\n        voters[_voterAddress].hasVoted = false;\n        \n        emit VoterRegistered(_voterAddress);\n    }\n\n    // Add Candidate\n    function addCandidate(string memory _name, string memory _party) public onlyAdmin {\n        candidatesCount++;\n        candidates[candidatesCount] = Candidate(candidatesCount, _name, _party, 0);\n        emit CandidateAdded(candidatesCount, _name, _party);\n    }\n\n    // Vote\n    function vote(uint _candidateId) public {\n        // Require that voter is registered\n        require(voters[msg.sender].isRegistered, \"Voter is not registered\");\n        \n        // Require that voter hasn't voted before\n        require(!voters[msg.sender].hasVoted, \"Voter has already voted\");\n        \n        // Require a valid candidate\n        require(_candidateId > 0 && _candidateId <= candidatesCount, \"Invalid candidate\");\n        \n        // Record that voter has voted\n        voters[msg.sender].hasVoted = true;\n        voters[msg.sender].votedCandidateId = _candidateId;\n        \n        // Update candidate vote count\n        candidates[_candidateId].voteCount++;\n        \n        emit VoteCast(msg.sender, _candidateId);\n    }\n}",
  "sourcePath": "C:\\Users\\aksha\\OneDrive\\Desktop\\HTML\\voting-blockchain-app\\backend\\truffle\\contracts\\Election.sol",
  "compiler": {
    "name": "solc",
    "version": "0.8.0+commit.c7dfd78e.Emscripten.clang"
  },
  "schemaVersion": "3.4.16",
  "updatedAt": "2025-03-26T04:57:30.944Z",
  "networkType": "ethereum",
  "devdoc": {
    "kind": "dev",
    "methods": {},
    "version": 1
  },
  "userdoc": {
    "kind": "user",
    "methods": {},
    "version": 1
  }
}